{"abi":[{"type":"constructor","inputs":[],"stateMutability":"nonpayable"},{"type":"function","name":"_tokenIdCounter","inputs":[],"outputs":[{"name":"","type":"uint256","internalType":"uint256"}],"stateMutability":"view"},{"type":"function","name":"approve","inputs":[{"name":"to","type":"address","internalType":"address"},{"name":"tokenId","type":"uint256","internalType":"uint256"}],"outputs":[],"stateMutability":"nonpayable"},{"type":"function","name":"balanceOf","inputs":[{"name":"owner","type":"address","internalType":"address"}],"outputs":[{"name":"","type":"uint256","internalType":"uint256"}],"stateMutability":"view"},{"type":"function","name":"certificates","inputs":[{"name":"","type":"uint256","internalType":"uint256"}],"outputs":[{"name":"recipientName","type":"string","internalType":"string"},{"name":"courseName","type":"string","internalType":"string"},{"name":"institutionName","type":"string","internalType":"string"},{"name":"issueDate","type":"uint256","internalType":"uint256"}],"stateMutability":"view"},{"type":"function","name":"getApproved","inputs":[{"name":"tokenId","type":"uint256","internalType":"uint256"}],"outputs":[{"name":"","type":"address","internalType":"address"}],"stateMutability":"view"},{"type":"function","name":"getCertificate","inputs":[{"name":"tokenId","type":"uint256","internalType":"uint256"}],"outputs":[{"name":"","type":"tuple","internalType":"struct CertificationNFT.Certificate","components":[{"name":"recipientName","type":"string","internalType":"string"},{"name":"courseName","type":"string","internalType":"string"},{"name":"institutionName","type":"string","internalType":"string"},{"name":"issueDate","type":"uint256","internalType":"uint256"}]}],"stateMutability":"view"},{"type":"function","name":"isApprovedForAll","inputs":[{"name":"owner","type":"address","internalType":"address"},{"name":"operator","type":"address","internalType":"address"}],"outputs":[{"name":"","type":"bool","internalType":"bool"}],"stateMutability":"view"},{"type":"function","name":"mintCertificate","inputs":[{"name":"recipient","type":"address","internalType":"address"},{"name":"recipientName","type":"string","internalType":"string"},{"name":"courseName","type":"string","internalType":"string"},{"name":"institutionName","type":"string","internalType":"string"}],"outputs":[],"stateMutability":"nonpayable"},{"type":"function","name":"name","inputs":[],"outputs":[{"name":"","type":"string","internalType":"string"}],"stateMutability":"view"},{"type":"function","name":"owner","inputs":[],"outputs":[{"name":"","type":"address","internalType":"address"}],"stateMutability":"view"},{"type":"function","name":"ownerOf","inputs":[{"name":"tokenId","type":"uint256","internalType":"uint256"}],"outputs":[{"name":"","type":"address","internalType":"address"}],"stateMutability":"view"},{"type":"function","name":"renounceOwnership","inputs":[],"outputs":[],"stateMutability":"nonpayable"},{"type":"function","name":"safeTransferFrom","inputs":[{"name":"from","type":"address","internalType":"address"},{"name":"to","type":"address","internalType":"address"},{"name":"tokenId","type":"uint256","internalType":"uint256"}],"outputs":[],"stateMutability":"nonpayable"},{"type":"function","name":"safeTransferFrom","inputs":[{"name":"from","type":"address","internalType":"address"},{"name":"to","type":"address","internalType":"address"},{"name":"tokenId","type":"uint256","internalType":"uint256"},{"name":"data","type":"bytes","internalType":"bytes"}],"outputs":[],"stateMutability":"nonpayable"},{"type":"function","name":"setApprovalForAll","inputs":[{"name":"operator","type":"address","internalType":"address"},{"name":"approved","type":"bool","internalType":"bool"}],"outputs":[],"stateMutability":"nonpayable"},{"type":"function","name":"supportsInterface","inputs":[{"name":"interfaceId","type":"bytes4","internalType":"bytes4"}],"outputs":[{"name":"","type":"bool","internalType":"bool"}],"stateMutability":"view"},{"type":"function","name":"symbol","inputs":[],"outputs":[{"name":"","type":"string","internalType":"string"}],"stateMutability":"view"},{"type":"function","name":"tokenURI","inputs":[{"name":"tokenId","type":"uint256","internalType":"uint256"}],"outputs":[{"name":"","type":"string","internalType":"string"}],"stateMutability":"view"},{"type":"function","name":"transferFrom","inputs":[{"name":"from","type":"address","internalType":"address"},{"name":"to","type":"address","internalType":"address"},{"name":"tokenId","type":"uint256","internalType":"uint256"}],"outputs":[],"stateMutability":"nonpayable"},{"type":"function","name":"transferOwnership","inputs":[{"name":"newOwner","type":"address","internalType":"address"}],"outputs":[],"stateMutability":"nonpayable"},{"type":"event","name":"Approval","inputs":[{"name":"owner","type":"address","indexed":true,"internalType":"address"},{"name":"approved","type":"address","indexed":true,"internalType":"address"},{"name":"tokenId","type":"uint256","indexed":true,"internalType":"uint256"}],"anonymous":false},{"type":"event","name":"ApprovalForAll","inputs":[{"name":"owner","type":"address","indexed":true,"internalType":"address"},{"name":"operator","type":"address","indexed":true,"internalType":"address"},{"name":"approved","type":"bool","indexed":false,"internalType":"bool"}],"anonymous":false},{"type":"event","name":"OwnershipTransferred","inputs":[{"name":"previousOwner","type":"address","indexed":true,"internalType":"address"},{"name":"newOwner","type":"address","indexed":true,"internalType":"address"}],"anonymous":false},{"type":"event","name":"Transfer","inputs":[{"name":"from","type":"address","indexed":true,"internalType":"address"},{"name":"to","type":"address","indexed":true,"internalType":"address"},{"name":"tokenId","type":"uint256","indexed":true,"internalType":"uint256"}],"anonymous":false},{"type":"error","name":"ERC721IncorrectOwner","inputs":[{"name":"sender","type":"address","internalType":"address"},{"name":"tokenId","type":"uint256","internalType":"uint256"},{"name":"owner","type":"address","internalType":"address"}]},{"type":"error","name":"ERC721InsufficientApproval","inputs":[{"name":"operator","type":"address","internalType":"address"},{"name":"tokenId","type":"uint256","internalType":"uint256"}]},{"type":"error","name":"ERC721InvalidApprover","inputs":[{"name":"approver","type":"address","internalType":"address"}]},{"type":"error","name":"ERC721InvalidOperator","inputs":[{"name":"operator","type":"address","internalType":"address"}]},{"type":"error","name":"ERC721InvalidOwner","inputs":[{"name":"owner","type":"address","internalType":"address"}]},{"type":"error","name":"ERC721InvalidReceiver","inputs":[{"name":"receiver","type":"address","internalType":"address"}]},{"type":"error","name":"ERC721InvalidSender","inputs":[{"name":"sender","type":"address","internalType":"address"}]},{"type":"error","name":"ERC721NonexistentToken","inputs":[{"name":"tokenId","type":"uint256","internalType":"uint256"}]},{"type":"error","name":"OwnableInvalidOwner","inputs":[{"name":"owner","type":"address","internalType":"address"}]},{"type":"error","name":"OwnableUnauthorizedAccount","inputs":[{"name":"account","type":"address","internalType":"address"}]}],"bytecode":{"object":"0x608060405234801561001057600080fd5b50336040518060400160405280601081526020016f10d95c9d1a599a58d85d1a5bdb93919560821b8152506040518060400160405280600481526020016310d1549560e21b815250816000908161006791906101aa565b50600161007482826101aa565b5050506001600160a01b0381166100a557604051631e4fbdf760e01b81526000600482015260240160405180910390fd5b6100ae816100b9565b506001600755610268565b600680546001600160a01b038381166001600160a01b0319831681179093556040519116919082907f8be0079c531659141344cd1fd0a4f28419497f9722a3daafe3b4186f6b6457e090600090a35050565b634e487b7160e01b600052604160045260246000fd5b600181811c9082168061013557607f821691505b60208210810361015557634e487b7160e01b600052602260045260246000fd5b50919050565b601f8211156101a557806000526020600020601f840160051c810160208510156101825750805b601f840160051c820191505b818110156101a2576000815560010161018e565b50505b505050565b81516001600160401b038111156101c3576101c361010b565b6101d7816101d18454610121565b8461015b565b6020601f82116001811461020b57600083156101f35750848201515b600019600385901b1c1916600184901b1784556101a2565b600084815260208120601f198516915b8281101561023b578785015182556020948501946001909201910161021b565b50848210156102595786840151600019600387901b60f8161c191681555b50505050600190811b01905550565b6118b4806102776000396000f3fe608060405234801561001057600080fd5b506004361061012c5760003560e01c8063715018a6116100ad578063a22cb46511610071578063a22cb46514610288578063b88d4fde1461029b578063c87b56dd146102ae578063e985e9c5146102c1578063f2fde38b146102d457600080fd5b8063715018a61461024b57806384c4bd4b146102535780638da5cb5b1461025c578063929c01fd1461026d57806395d89b411461028057600080fd5b806342842e0e116100f457806342842e0e146101c157806351640fee146101d45780636352211e146101f4578063663b3e221461020757806370a082311461022a57600080fd5b806301ffc9a71461013157806306fdde0314610159578063081812fc1461016e578063095ea7b31461019957806323b872dd146101ae575b600080fd5b61014461013f36600461126a565b6102e7565b60405190151581526020015b60405180910390f35b610161610339565b60405161015091906112d7565b61018161017c3660046112ea565b6103cb565b6040516001600160a01b039091168152602001610150565b6101ac6101a736600461131f565b6103f4565b005b6101ac6101bc366004611349565b610403565b6101ac6101cf366004611349565b610493565b6101e76101e23660046112ea565b6104b3565b6040516101509190611386565b6101816102023660046112ea565b61071e565b61021a6102153660046112ea565b610729565b60405161015094939291906113f4565b61023d61023836600461143f565b6108e9565b604051908152602001610150565b6101ac610931565b61023d60075481565b6006546001600160a01b0316610181565b6101ac61027b36600461150a565b610945565b6101616109eb565b6101ac6102963660046115af565b6109fa565b6101ac6102a93660046115eb565b610a05565b6101616102bc3660046112ea565b610a1c565b6101446102cf36600461165b565b610a91565b6101ac6102e236600461143f565b610abf565b60006001600160e01b031982166380ac58cd60e01b148061031857506001600160e01b03198216635b5e139f60e01b145b8061033357506301ffc9a760e01b6001600160e01b03198316145b92915050565b6060600080546103489061168e565b80601f01602080910402602001604051908101604052809291908181526020018280546103749061168e565b80156103c15780601f10610396576101008083540402835291602001916103c1565b820191906000526020600020905b8154815290600101906020018083116103a457829003601f168201915b5050505050905090565b60006103d682610afd565b506000828152600460205260409020546001600160a01b0316610333565b6103ff828233610b36565b5050565b6001600160a01b03821661043257604051633250574960e11b8152600060048201526024015b60405180910390fd5b600061043f838333610b43565b9050836001600160a01b0316816001600160a01b03161461048d576040516364283d7b60e01b81526001600160a01b0380861660048301526024820184905282166044820152606401610429565b50505050565b6104ae83838360405180602001604052806000815250610a05565b505050565b6104de6040518060800160405280606081526020016060815260200160608152602001600081525090565b60006104e98361071e565b6001600160a01b03160361053f5760405162461bcd60e51b815260206004820152601b60248201527f436572746966696361746520646f6573206e6f742065786973742e00000000006044820152606401610429565b600082815260086020526040908190208151608081019092528054829082906105679061168e565b80601f01602080910402602001604051908101604052809291908181526020018280546105939061168e565b80156105e05780601f106105b5576101008083540402835291602001916105e0565b820191906000526020600020905b8154815290600101906020018083116105c357829003601f168201915b505050505081526020016001820180546105f99061168e565b80601f01602080910402602001604051908101604052809291908181526020018280546106259061168e565b80156106725780601f1061064757610100808354040283529160200191610672565b820191906000526020600020905b81548152906001019060200180831161065557829003601f168201915b5050505050815260200160028201805461068b9061168e565b80601f01602080910402602001604051908101604052809291908181526020018280546106b79061168e565b80156107045780601f106106d957610100808354040283529160200191610704565b820191906000526020600020905b8154815290600101906020018083116106e757829003601f168201915b505050505081526020016003820154815250509050919050565b600061033382610afd565b6008602052600090815260409020805481906107449061168e565b80601f01602080910402602001604051908101604052809291908181526020018280546107709061168e565b80156107bd5780601f10610792576101008083540402835291602001916107bd565b820191906000526020600020905b8154815290600101906020018083116107a057829003601f168201915b5050505050908060010180546107d29061168e565b80601f01602080910402602001604051908101604052809291908181526020018280546107fe9061168e565b801561084b5780601f106108205761010080835404028352916020019161084b565b820191906000526020600020905b81548152906001019060200180831161082e57829003601f168201915b5050505050908060020180546108609061168e565b80601f016020809104026020016040519081016040528092919081815260200182805461088c9061168e565b80156108d95780601f106108ae576101008083540402835291602001916108d9565b820191906000526020600020905b8154815290600101906020018083116108bc57829003601f168201915b5050505050908060030154905084565b60006001600160a01b038216610915576040516322718ad960e21b815260006004820152602401610429565b506001600160a01b031660009081526003602052604090205490565b610939610c3c565b6109436000610c69565b565b61094d610c3c565b60075461095a8582610cbb565b604080516080810182528581526020808201869052818301859052426060830152600084815260089091529190912081518190610997908261170f565b50602082015160018201906109ac908261170f565b50604082015160028201906109c1908261170f565b5060609190910151600390910155600780549060006109df836117ce565b91905055505050505050565b6060600180546103489061168e565b6103ff338383610cd5565b610a10848484610403565b61048d84848484610d74565b6060610a2782610afd565b506000610a3f60408051602081019091526000815290565b90506000815111610a5f5760405180602001604052806000815250610a8a565b80610a6984610e9d565b604051602001610a7a9291906117f5565b6040516020818303038152906040525b9392505050565b6001600160a01b03918216600090815260056020908152604080832093909416825291909152205460ff1690565b610ac7610c3c565b6001600160a01b038116610af157604051631e4fbdf760e01b815260006004820152602401610429565b610afa81610c69565b50565b6000818152600260205260408120546001600160a01b03168061033357604051637e27328960e01b815260048101849052602401610429565b6104ae8383836001610f30565b6000828152600260205260408120546001600160a01b0390811690831615610b7057610b70818486611036565b6001600160a01b03811615610bae57610b8d600085600080610f30565b6001600160a01b038116600090815260036020526040902080546000190190555b6001600160a01b03851615610bdd576001600160a01b0385166000908152600360205260409020805460010190555b60008481526002602052604080822080546001600160a01b0319166001600160a01b0389811691821790925591518793918516917fddf252ad1be2c89b69c2b068fc378daa952ba7f163c4a11628f55a4df523b3ef91a4949350505050565b6006546001600160a01b031633146109435760405163118cdaa760e01b8152336004820152602401610429565b600680546001600160a01b038381166001600160a01b0319831681179093556040519116919082907f8be0079c531659141344cd1fd0a4f28419497f9722a3daafe3b4186f6b6457e090600090a35050565b6103ff82826040518060200160405280600081525061109a565b6001600160a01b038216610d0757604051630b61174360e31b81526001600160a01b0383166004820152602401610429565b6001600160a01b03838116600081815260056020908152604080832094871680845294825291829020805460ff191686151590811790915591519182527f17307eab39ab6107e8899845ad3d59bd9653f200f220920489ca2b5937696c31910160405180910390a3505050565b6001600160a01b0383163b1561048d57604051630a85bd0160e11b81526001600160a01b0384169063150b7a0290610db6903390889087908790600401611824565b6020604051808303816000875af1925050508015610df1575060408051601f3d908101601f19168201909252610dee91810190611861565b60015b610e5a573d808015610e1f576040519150601f19603f3d011682016040523d82523d6000602084013e610e24565b606091505b508051600003610e5257604051633250574960e11b81526001600160a01b0385166004820152602401610429565b805181602001fd5b6001600160e01b03198116630a85bd0160e11b14610e9657604051633250574960e11b81526001600160a01b0385166004820152602401610429565b5050505050565b60606000610eaa836110b1565b600101905060008167ffffffffffffffff811115610eca57610eca61145a565b6040519080825280601f01601f191660200182016040528015610ef4576020820181803683370190505b5090508181016020015b600019016f181899199a1a9b1b9c1cb0b131b232b360811b600a86061a8153600a8504945084610efe57509392505050565b8080610f4457506001600160a01b03821615155b15611006576000610f5484610afd565b90506001600160a01b03831615801590610f805750826001600160a01b0316816001600160a01b031614155b8015610f935750610f918184610a91565b155b15610fbc5760405163a9fbf51f60e01b81526001600160a01b0384166004820152602401610429565b81156110045783856001600160a01b0316826001600160a01b03167f8c5be1e5ebec7d5bd14f71427d1e84f3dd0314c0f7b2291e5b200ac8c7c3b92560405160405180910390a45b505b5050600090815260046020526040902080546001600160a01b0319166001600160a01b0392909216919091179055565b611041838383611189565b6104ae576001600160a01b03831661106f57604051637e27328960e01b815260048101829052602401610429565b60405163177e802f60e01b81526001600160a01b038316600482015260248101829052604401610429565b6110a483836111ef565b6104ae6000848484610d74565b60008072184f03e93ff9f4daa797ed6e38ed64bf6a1f0160401b83106110f05772184f03e93ff9f4daa797ed6e38ed64bf6a1f0160401b830492506040015b6d04ee2d6d415b85acef8100000000831061111c576d04ee2d6d415b85acef8100000000830492506020015b662386f26fc10000831061113a57662386f26fc10000830492506010015b6305f5e1008310611152576305f5e100830492506008015b612710831061116657612710830492506004015b60648310611178576064830492506002015b600a83106103335760010192915050565b60006001600160a01b038316158015906111e75750826001600160a01b0316846001600160a01b031614806111c357506111c38484610a91565b806111e757506000828152600460205260409020546001600160a01b038481169116145b949350505050565b6001600160a01b03821661121957604051633250574960e11b815260006004820152602401610429565b600061122783836000610b43565b90506001600160a01b038116156104ae576040516339e3563760e11b815260006004820152602401610429565b6001600160e01b031981168114610afa57600080fd5b60006020828403121561127c57600080fd5b8135610a8a81611254565b60005b838110156112a257818101518382015260200161128a565b50506000910152565b600081518084526112c3816020860160208601611287565b601f01601f19169290920160200192915050565b602081526000610a8a60208301846112ab565b6000602082840312156112fc57600080fd5b5035919050565b80356001600160a01b038116811461131a57600080fd5b919050565b6000806040838503121561133257600080fd5b61133b83611303565b946020939093013593505050565b60008060006060848603121561135e57600080fd5b61136784611303565b925061137560208501611303565b929592945050506040919091013590565b6020815260008251608060208401526113a260a08401826112ab565b90506020840151601f198483030160408501526113bf82826112ab565b9150506040840151601f198483030160608501526113dd82826112ab565b915050606084015160808401528091505092915050565b60808152600061140760808301876112ab565b828103602084015261141981876112ab565b9050828103604084015261142d81866112ab565b91505082606083015295945050505050565b60006020828403121561145157600080fd5b610a8a82611303565b634e487b7160e01b600052604160045260246000fd5b60008067ffffffffffffffff84111561148b5761148b61145a565b50604051601f19601f85018116603f0116810181811067ffffffffffffffff821117156114ba576114ba61145a565b6040528381529050808284018510156114d257600080fd5b83836020830137600060208583010152509392505050565b600082601f8301126114fb57600080fd5b610a8a83833560208501611470565b6000806000806080858703121561152057600080fd5b61152985611303565b9350602085013567ffffffffffffffff81111561154557600080fd5b611551878288016114ea565b935050604085013567ffffffffffffffff81111561156e57600080fd5b61157a878288016114ea565b925050606085013567ffffffffffffffff81111561159757600080fd5b6115a3878288016114ea565b91505092959194509250565b600080604083850312156115c257600080fd5b6115cb83611303565b9150602083013580151581146115e057600080fd5b809150509250929050565b6000806000806080858703121561160157600080fd5b61160a85611303565b935061161860208601611303565b925060408501359150606085013567ffffffffffffffff81111561163b57600080fd5b8501601f8101871361164c57600080fd5b6115a387823560208401611470565b6000806040838503121561166e57600080fd5b61167783611303565b915061168560208401611303565b90509250929050565b600181811c908216806116a257607f821691505b6020821081036116c257634e487b7160e01b600052602260045260246000fd5b50919050565b601f8211156104ae57806000526020600020601f840160051c810160208510156116ef5750805b601f840160051c820191505b81811015610e9657600081556001016116fb565b815167ffffffffffffffff8111156117295761172961145a565b61173d81611737845461168e565b846116c8565b6020601f82116001811461177157600083156117595750848201515b600019600385901b1c1916600184901b178455610e96565b600084815260208120601f198516915b828110156117a15787850151825560209485019460019092019101611781565b50848210156117bf5786840151600019600387901b60f8161c191681555b50505050600190811b01905550565b6000600182016117ee57634e487b7160e01b600052601160045260246000fd5b5060010190565b60008351611807818460208801611287565b83519083019061181b818360208801611287565b01949350505050565b6001600160a01b0385811682528416602082015260408101839052608060608201819052600090611857908301846112ab565b9695505050505050565b60006020828403121561187357600080fd5b8151610a8a8161125456fea2646970667358221220fc804c6b6c5a712163781fa1473276ae2d7608c50732877f98f39ea2a6a4e29864736f6c634300081b0033","linkReferences":{}},"methodIdentifiers":{"_tokenIdCounter()":"84c4bd4b","approve(address,uint256)":"095ea7b3","balanceOf(address)":"70a08231","certificates(uint256)":"663b3e22","getApproved(uint256)":"081812fc","getCertificate(uint256)":"51640fee","isApprovedForAll(address,address)":"e985e9c5","mintCertificate(address,string,string,string)":"929c01fd","name()":"06fdde03","owner()":"8da5cb5b","ownerOf(uint256)":"6352211e","renounceOwnership()":"715018a6","safeTransferFrom(address,address,uint256)":"42842e0e","safeTransferFrom(address,address,uint256,bytes)":"b88d4fde","setApprovalForAll(address,bool)":"a22cb465","supportsInterface(bytes4)":"01ffc9a7","symbol()":"95d89b41","tokenURI(uint256)":"c87b56dd","transferFrom(address,address,uint256)":"23b872dd","transferOwnership(address)":"f2fde38b"},"id":37}